{
  "contractName": "Marketplace",
  "abi": [
    {
      "inputs": [],
      "stateMutability": "payable",
      "type": "constructor",
      "payable": true
    },
    {
      "anonymous": false,
      "inputs": [
        {
          "indexed": false,
          "internalType": "uint256",
          "name": "id",
          "type": "uint256"
        },
        {
          "indexed": false,
          "internalType": "string",
          "name": "name",
          "type": "string"
        },
        {
          "indexed": false,
          "internalType": "uint256",
          "name": "price",
          "type": "uint256"
        },
        {
          "indexed": false,
          "internalType": "address",
          "name": "owner",
          "type": "address"
        },
        {
          "indexed": false,
          "internalType": "string",
          "name": "completed",
          "type": "string"
        }
      ],
      "name": "BalanceWithdrawn",
      "type": "event"
    },
    {
      "anonymous": false,
      "inputs": [
        {
          "indexed": false,
          "internalType": "address",
          "name": "buyer",
          "type": "address"
        },
        {
          "indexed": false,
          "internalType": "address",
          "name": "seller",
          "type": "address"
        },
        {
          "indexed": false,
          "internalType": "uint256",
          "name": "totalAmount",
          "type": "uint256"
        },
        {
          "indexed": false,
          "internalType": "uint256",
          "name": "qty",
          "type": "uint256"
        },
        {
          "indexed": false,
          "internalType": "string",
          "name": "productName",
          "type": "string"
        }
      ],
      "name": "OrderCreated",
      "type": "event"
    },
    {
      "anonymous": false,
      "inputs": [
        {
          "indexed": true,
          "internalType": "address",
          "name": "previousOwner",
          "type": "address"
        },
        {
          "indexed": true,
          "internalType": "address",
          "name": "newOwner",
          "type": "address"
        }
      ],
      "name": "OwnershipTransferred",
      "type": "event"
    },
    {
      "anonymous": false,
      "inputs": [
        {
          "indexed": false,
          "internalType": "address",
          "name": "account",
          "type": "address"
        }
      ],
      "name": "Paused",
      "type": "event"
    },
    {
      "anonymous": false,
      "inputs": [
        {
          "indexed": false,
          "internalType": "uint256",
          "name": "id",
          "type": "uint256"
        },
        {
          "indexed": false,
          "internalType": "string",
          "name": "name",
          "type": "string"
        },
        {
          "indexed": false,
          "internalType": "string",
          "name": "image",
          "type": "string"
        },
        {
          "indexed": false,
          "internalType": "uint256",
          "name": "price",
          "type": "uint256"
        },
        {
          "indexed": false,
          "internalType": "string",
          "name": "category",
          "type": "string"
        },
        {
          "indexed": false,
          "internalType": "uint256",
          "name": "countInStock",
          "type": "uint256"
        },
        {
          "indexed": false,
          "internalType": "uint256",
          "name": "rating",
          "type": "uint256"
        },
        {
          "indexed": false,
          "internalType": "string",
          "name": "description",
          "type": "string"
        },
        {
          "indexed": false,
          "internalType": "address",
          "name": "owner",
          "type": "address"
        }
      ],
      "name": "ProductCreated",
      "type": "event"
    },
    {
      "anonymous": false,
      "inputs": [
        {
          "indexed": false,
          "internalType": "uint256",
          "name": "id",
          "type": "uint256"
        },
        {
          "indexed": false,
          "internalType": "string",
          "name": "name",
          "type": "string"
        },
        {
          "indexed": false,
          "internalType": "uint256",
          "name": "price",
          "type": "uint256"
        },
        {
          "indexed": false,
          "internalType": "address",
          "name": "owner",
          "type": "address"
        },
        {
          "indexed": false,
          "internalType": "bool",
          "name": "purchased",
          "type": "bool"
        }
      ],
      "name": "ProductPurchased",
      "type": "event"
    },
    {
      "anonymous": false,
      "inputs": [
        {
          "indexed": false,
          "internalType": "address",
          "name": "account",
          "type": "address"
        }
      ],
      "name": "Unpaused",
      "type": "event"
    },
    {
      "anonymous": false,
      "inputs": [
        {
          "indexed": false,
          "internalType": "address",
          "name": "_addr",
          "type": "address"
        },
        {
          "indexed": false,
          "internalType": "enum Marketplace.Status",
          "name": "",
          "type": "uint8"
        }
      ],
      "name": "logApproved",
      "type": "event"
    },
    {
      "anonymous": false,
      "inputs": [
        {
          "indexed": false,
          "internalType": "uint256",
          "name": "id",
          "type": "uint256"
        },
        {
          "indexed": false,
          "internalType": "string",
          "name": "_name",
          "type": "string"
        },
        {
          "indexed": false,
          "internalType": "string",
          "name": "_tradeLicence",
          "type": "string"
        },
        {
          "indexed": false,
          "internalType": "string",
          "name": "_logo",
          "type": "string"
        },
        {
          "indexed": false,
          "internalType": "address",
          "name": "_addr",
          "type": "address"
        }
      ],
      "name": "supplierCreated",
      "type": "event"
    },
    {
      "inputs": [],
      "name": "_owner",
      "outputs": [
        {
          "internalType": "address",
          "name": "",
          "type": "address"
        }
      ],
      "stateMutability": "view",
      "type": "function",
      "constant": true
    },
    {
      "inputs": [],
      "name": "name",
      "outputs": [
        {
          "internalType": "string",
          "name": "",
          "type": "string"
        }
      ],
      "stateMutability": "view",
      "type": "function",
      "constant": true
    },
    {
      "inputs": [],
      "name": "orderCount",
      "outputs": [
        {
          "internalType": "uint256",
          "name": "",
          "type": "uint256"
        }
      ],
      "stateMutability": "view",
      "type": "function",
      "constant": true
    },
    {
      "inputs": [
        {
          "internalType": "uint256",
          "name": "",
          "type": "uint256"
        }
      ],
      "name": "orders",
      "outputs": [
        {
          "internalType": "uint256",
          "name": "orderID",
          "type": "uint256"
        },
        {
          "internalType": "string",
          "name": "productName",
          "type": "string"
        },
        {
          "internalType": "uint256",
          "name": "quantity",
          "type": "uint256"
        },
        {
          "internalType": "address payable",
          "name": "seller",
          "type": "address"
        },
        {
          "internalType": "address payable",
          "name": "buyer",
          "type": "address"
        },
        {
          "internalType": "uint256",
          "name": "totalAmount",
          "type": "uint256"
        },
        {
          "internalType": "enum Marketplace.OrderStatus",
          "name": "orderStatus",
          "type": "uint8"
        }
      ],
      "stateMutability": "view",
      "type": "function",
      "constant": true
    },
    {
      "inputs": [],
      "name": "orderstatus",
      "outputs": [
        {
          "internalType": "enum Marketplace.OrderStatus",
          "name": "",
          "type": "uint8"
        }
      ],
      "stateMutability": "view",
      "type": "function",
      "constant": true
    },
    {
      "inputs": [],
      "name": "owner",
      "outputs": [
        {
          "internalType": "address",
          "name": "",
          "type": "address"
        }
      ],
      "stateMutability": "view",
      "type": "function",
      "constant": true
    },
    {
      "inputs": [],
      "name": "paused",
      "outputs": [
        {
          "internalType": "bool",
          "name": "",
          "type": "bool"
        }
      ],
      "stateMutability": "view",
      "type": "function",
      "constant": true
    },
    {
      "inputs": [],
      "name": "productCount",
      "outputs": [
        {
          "internalType": "uint256",
          "name": "",
          "type": "uint256"
        }
      ],
      "stateMutability": "view",
      "type": "function",
      "constant": true
    },
    {
      "inputs": [
        {
          "internalType": "uint256",
          "name": "",
          "type": "uint256"
        }
      ],
      "name": "products",
      "outputs": [
        {
          "internalType": "uint256",
          "name": "id",
          "type": "uint256"
        },
        {
          "internalType": "string",
          "name": "name",
          "type": "string"
        },
        {
          "internalType": "string",
          "name": "image",
          "type": "string"
        },
        {
          "internalType": "uint256",
          "name": "price",
          "type": "uint256"
        },
        {
          "internalType": "string",
          "name": "category",
          "type": "string"
        },
        {
          "internalType": "uint256",
          "name": "countInStock",
          "type": "uint256"
        },
        {
          "internalType": "uint256",
          "name": "rating",
          "type": "uint256"
        },
        {
          "internalType": "string",
          "name": "description",
          "type": "string"
        },
        {
          "internalType": "address",
          "name": "owner",
          "type": "address"
        }
      ],
      "stateMutability": "view",
      "type": "function",
      "constant": true
    },
    {
      "inputs": [],
      "name": "renounceOwnership",
      "outputs": [],
      "stateMutability": "nonpayable",
      "type": "function"
    },
    {
      "inputs": [],
      "name": "status",
      "outputs": [
        {
          "internalType": "enum Marketplace.Status",
          "name": "",
          "type": "uint8"
        }
      ],
      "stateMutability": "view",
      "type": "function",
      "constant": true
    },
    {
      "inputs": [],
      "name": "supplierCount",
      "outputs": [
        {
          "internalType": "uint256",
          "name": "",
          "type": "uint256"
        }
      ],
      "stateMutability": "view",
      "type": "function",
      "constant": true
    },
    {
      "inputs": [
        {
          "internalType": "address",
          "name": "",
          "type": "address"
        }
      ],
      "name": "suppliers",
      "outputs": [
        {
          "internalType": "uint256",
          "name": "Id",
          "type": "uint256"
        },
        {
          "internalType": "string",
          "name": "name",
          "type": "string"
        },
        {
          "internalType": "string",
          "name": "tradeLicence",
          "type": "string"
        },
        {
          "internalType": "string",
          "name": "image",
          "type": "string"
        },
        {
          "internalType": "enum Marketplace.Status",
          "name": "status",
          "type": "uint8"
        },
        {
          "internalType": "uint256",
          "name": "tranCount",
          "type": "uint256"
        },
        {
          "internalType": "uint256",
          "name": "totalTranBalance",
          "type": "uint256"
        },
        {
          "internalType": "uint256",
          "name": "walletBalance",
          "type": "uint256"
        },
        {
          "internalType": "address",
          "name": "storeOwner",
          "type": "address"
        }
      ],
      "stateMutability": "view",
      "type": "function",
      "constant": true
    },
    {
      "inputs": [
        {
          "internalType": "address",
          "name": "newOwner",
          "type": "address"
        }
      ],
      "name": "transferOwnership",
      "outputs": [],
      "stateMutability": "nonpayable",
      "type": "function"
    },
    {
      "inputs": [],
      "name": "userCount",
      "outputs": [
        {
          "internalType": "uint256",
          "name": "",
          "type": "uint256"
        }
      ],
      "stateMutability": "view",
      "type": "function",
      "constant": true
    },
    {
      "inputs": [
        {
          "internalType": "uint256",
          "name": "",
          "type": "uint256"
        }
      ],
      "name": "users",
      "outputs": [
        {
          "internalType": "uint256",
          "name": "id",
          "type": "uint256"
        },
        {
          "internalType": "address",
          "name": "_addr",
          "type": "address"
        },
        {
          "internalType": "bool",
          "name": "isActive",
          "type": "bool"
        },
        {
          "internalType": "bool",
          "name": "isAdmin",
          "type": "bool"
        },
        {
          "internalType": "bool",
          "name": "isSeller",
          "type": "bool"
        }
      ],
      "stateMutability": "view",
      "type": "function",
      "constant": true
    },
    {
      "inputs": [
        {
          "internalType": "string",
          "name": "_name",
          "type": "string"
        },
        {
          "internalType": "string",
          "name": "_tradeLicence",
          "type": "string"
        },
        {
          "internalType": "string",
          "name": "_logo",
          "type": "string"
        }
      ],
      "name": "createSupplier",
      "outputs": [],
      "stateMutability": "nonpayable",
      "type": "function"
    },
    {
      "inputs": [
        {
          "internalType": "address",
          "name": "_addr",
          "type": "address"
        }
      ],
      "name": "approveSupplier",
      "outputs": [],
      "stateMutability": "nonpayable",
      "type": "function"
    },
    {
      "inputs": [
        {
          "internalType": "string",
          "name": "_name",
          "type": "string"
        },
        {
          "internalType": "uint256",
          "name": "_price",
          "type": "uint256"
        },
        {
          "internalType": "string",
          "name": "_image",
          "type": "string"
        },
        {
          "internalType": "string",
          "name": "_category",
          "type": "string"
        },
        {
          "internalType": "string",
          "name": "_description",
          "type": "string"
        },
        {
          "internalType": "uint256",
          "name": "_countInStock",
          "type": "uint256"
        }
      ],
      "name": "createProduct",
      "outputs": [],
      "stateMutability": "nonpayable",
      "type": "function"
    },
    {
      "inputs": [
        {
          "internalType": "uint256",
          "name": "id",
          "type": "uint256"
        },
        {
          "internalType": "uint256",
          "name": "_price",
          "type": "uint256"
        },
        {
          "internalType": "uint256",
          "name": "_countInStock",
          "type": "uint256"
        }
      ],
      "name": "updateProduct",
      "outputs": [],
      "stateMutability": "nonpayable",
      "type": "function"
    },
    {
      "inputs": [
        {
          "internalType": "uint256",
          "name": "_id",
          "type": "uint256"
        },
        {
          "internalType": "uint256",
          "name": "qty",
          "type": "uint256"
        }
      ],
      "name": "purchaseProduct",
      "outputs": [],
      "stateMutability": "payable",
      "type": "function",
      "payable": true
    },
    {
      "inputs": [
        {
          "internalType": "uint256",
          "name": "productId",
          "type": "uint256"
        },
        {
          "internalType": "uint256",
          "name": "quantity",
          "type": "uint256"
        }
      ],
      "name": "createOrder",
      "outputs": [],
      "stateMutability": "payable",
      "type": "function",
      "payable": true
    },
    {
      "inputs": [
        {
          "internalType": "uint256",
          "name": "orderID",
          "type": "uint256"
        }
      ],
      "name": "payOrder",
      "outputs": [],
      "stateMutability": "payable",
      "type": "function",
      "payable": true
    },
    {
      "inputs": [
        {
          "internalType": "uint256",
          "name": "orderId",
          "type": "uint256"
        }
      ],
      "name": "deliver",
      "outputs": [],
      "stateMutability": "nonpayable",
      "type": "function"
    },
    {
      "inputs": [
        {
          "internalType": "uint256",
          "name": "orderID",
          "type": "uint256"
        }
      ],
      "name": "withdrawBalance",
      "outputs": [],
      "stateMutability": "nonpayable",
      "type": "function"
    }
  ],
  "bytecode": "0x6080604052600060015560006002556000600355600060085560006200002a6200031460201b60201c565b9050806000806101000a81548173ffffffffffffffffffffffffffffffffffffffff021916908373ffffffffffffffffffffffffffffffffffffffff1602179055508073ffffffffffffffffffffffffffffffffffffffff16600073ffffffffffffffffffffffffffffffffffffffff167f8be0079c531659141344cd1fd0a4f28419497f9722a3daafe3b4186f6b6457e060405160405180910390a35060008060146101000a81548160ff0219169083151502179055506040518060400160405280601281526020017f4f6e6c696e65204d61726b6574706c6163650000000000000000000000000000815250600790805190602001906200012f9291906200031c565b5060086000815480929190600101919050555033600660006101000a81548173ffffffffffffffffffffffffffffffffffffffff021916908373ffffffffffffffffffffffffffffffffffffffff1602179055506001600460003373ffffffffffffffffffffffffffffffffffffffff1673ffffffffffffffffffffffffffffffffffffffff16815260200190815260200160002060006101000a81548160ff0219169083151502179055506040518060a001604052806008548152602001600660009054906101000a900473ffffffffffffffffffffffffffffffffffffffff1673ffffffffffffffffffffffffffffffffffffffff16815260200160011515815260200160011515815260200160011515815250600b600060085481526020019081526020016000206000820151816000015560208201518160010160006101000a81548173ffffffffffffffffffffffffffffffffffffffff021916908373ffffffffffffffffffffffffffffffffffffffff16021790555060408201518160010160146101000a81548160ff02191690831515021790555060608201518160010160156101000a81548160ff02191690831515021790555060808201518160010160166101000a81548160ff021916908315150217905550905050620003c2565b600033905090565b828054600181600116156101000203166002900490600052602060002090601f016020900481019282601f106200035f57805160ff191683800117855562000390565b8280016001018555821562000390579182015b828111156200038f57825182559160200191906001019062000372565b5b5090506200039f9190620003a3565b5090565b5b80821115620003be576000816000905550600101620003a4565b5090565b613fce80620003d26000396000f3fe6080604052600436106101665760003560e01c806379109baa116100d1578063a85c38ef1161008a578063da76d5cd11610064578063da76d5cd14610f29578063e0f6ef8714610f64578063f2fde38b14610f8f578063f85292ca14610fe057610166565b8063a85c38ef14610b32578063b2bdfa7b14610c47578063c51ee43214610c8857610166565b806379109baa146106245780637acc0b201461065c5780638da5cb5b1461088d57806390fbe6d1146108ce578063a044042614610ac4578063a5514eba14610afc57610166565b80632453ffa8116101235780632453ffa8146104c55780632a685d3c146104f0578063365b98b21461051e5780633bd5d173146105a55780635c975abb146105e0578063715018a61461060d57610166565b8063020ecff41461016b57806306fdde03146101bc57806307973ccf1461024c578063140c6b911461027757806316dc15fe146102a2578063200d2ed21461048f575b600080fd5b34801561017757600080fd5b506101ba6004803603602081101561018e57600080fd5b81019080803573ffffffffffffffffffffffffffffffffffffffff16906020019092919050505061102f565b005b3480156101c857600080fd5b506101d1611151565b6040518080602001828103825283818151815260200191508051906020019080838360005b838110156102115780820151818401526020810190506101f6565b50505050905090810190601f16801561023e5780820380516001836020036101000a031916815260200191505b509250505060405180910390f35b34801561025857600080fd5b506102616111ef565b6040518082815260200191505060405180910390f35b34801561028357600080fd5b5061028c6111f5565b6040518082815260200191505060405180910390f35b3480156102ae57600080fd5b506102f1600480360360208110156102c557600080fd5b81019080803573ffffffffffffffffffffffffffffffffffffffff1690602001909291905050506111fb565b604051808a815260200180602001806020018060200189600281111561031357fe5b81526020018881526020018781526020018681526020018573ffffffffffffffffffffffffffffffffffffffff16815260200184810384528c818151815260200191508051906020019080838360005b8381101561037e578082015181840152602081019050610363565b50505050905090810190601f1680156103ab5780820380516001836020036101000a031916815260200191505b5084810383528b818151815260200191508051906020019080838360005b838110156103e45780820151818401526020810190506103c9565b50505050905090810190601f1680156104115780820380516001836020036101000a031916815260200191505b5084810382528a818151815260200191508051906020019080838360005b8381101561044a57808201518184015260208101905061042f565b50505050905090810190601f1680156104775780820380516001836020036101000a031916815260200191505b509c5050505050505050505050505060405180910390f35b34801561049b57600080fd5b506104a461143e565b604051808260028111156104b457fe5b815260200191505060405180910390f35b3480156104d157600080fd5b506104da611451565b6040518082815260200191505060405180910390f35b61051c6004803603602081101561050657600080fd5b8101908080359060200190929190505050611457565b005b34801561052a57600080fd5b506105576004803603602081101561054157600080fd5b81019080803590602001909291905050506119c2565b604051808681526020018573ffffffffffffffffffffffffffffffffffffffff1681526020018415158152602001831515815260200182151581526020019550505050505060405180910390f35b3480156105b157600080fd5b506105de600480360360208110156105c857600080fd5b8101908080359060200190929190505050611a3f565b005b3480156105ec57600080fd5b506105f5611b99565b60405180821515815260200191505060405180910390f35b34801561061957600080fd5b50610622611baf565b005b61065a6004803603604081101561063a57600080fd5b810190808035906020019092919080359060200190929190505050611d35565b005b34801561066857600080fd5b506106956004803603602081101561067f57600080fd5b8101908080359060200190929190505050612396565b604051808a8152602001806020018060200189815260200180602001888152602001878152602001806020018673ffffffffffffffffffffffffffffffffffffffff16815260200185810385528d818151815260200191508051906020019080838360005b838110156107155780820151818401526020810190506106fa565b50505050905090810190601f1680156107425780820380516001836020036101000a031916815260200191505b5085810384528c818151815260200191508051906020019080838360005b8381101561077b578082015181840152602081019050610760565b50505050905090810190601f1680156107a85780820380516001836020036101000a031916815260200191505b5085810383528a818151815260200191508051906020019080838360005b838110156107e15780820151818401526020810190506107c6565b50505050905090810190601f16801561080e5780820380516001836020036101000a031916815260200191505b50858103825287818151815260200191508051906020019080838360005b8381101561084757808201518184015260208101905061082c565b50505050905090810190601f1680156108745780820380516001836020036101000a031916815260200191505b509d505050505050505050505050505060405180910390f35b34801561089957600080fd5b506108a2612664565b604051808273ffffffffffffffffffffffffffffffffffffffff16815260200191505060405180910390f35b3480156108da57600080fd5b50610ac2600480360360608110156108f157600080fd5b810190808035906020019064010000000081111561090e57600080fd5b82018360208201111561092057600080fd5b8035906020019184600183028401116401000000008311171561094257600080fd5b91908080601f016020809104026020016040519081016040528093929190818152602001838380828437600081840152601f19601f820116905080830192505050505050509192919290803590602001906401000000008111156109a557600080fd5b8201836020820111156109b757600080fd5b803590602001918460018302840111640100000000831117156109d957600080fd5b91908080601f016020809104026020016040519081016040528093929190818152602001838380828437600081840152601f19601f82011690508083019250505050505050919291929080359060200190640100000000811115610a3c57600080fd5b820183602082011115610a4e57600080fd5b80359060200191846001830284011164010000000083111715610a7057600080fd5b91908080601f016020809104026020016040519081016040528093929190818152602001838380828437600081840152601f19601f82011690508083019250505050505050919291929050505061268d565b005b610afa60048036036040811015610ada57600080fd5b810190808035906020019092919080359060200190929190505050612c0b565b005b348015610b0857600080fd5b50610b116130e1565b60405180826003811115610b2157fe5b815260200191505060405180910390f35b348015610b3e57600080fd5b50610b6b60048036036020811015610b5557600080fd5b81019080803590602001909291905050506130f4565b60405180888152602001806020018781526020018673ffffffffffffffffffffffffffffffffffffffff1681526020018573ffffffffffffffffffffffffffffffffffffffff168152602001848152602001836003811115610bc957fe5b8152602001828103825288818151815260200191508051906020019080838360005b83811015610c06578082015181840152602081019050610beb565b50505050905090810190601f168015610c335780820380516001836020036101000a031916815260200191505b509850505050505050505060405180910390f35b348015610c5357600080fd5b50610c5c61321b565b604051808273ffffffffffffffffffffffffffffffffffffffff16815260200191505060405180910390f35b348015610c9457600080fd5b50610f27600480360360c0811015610cab57600080fd5b8101908080359060200190640100000000811115610cc857600080fd5b820183602082011115610cda57600080fd5b80359060200191846001830284011164010000000083111715610cfc57600080fd5b91908080601f016020809104026020016040519081016040528093929190818152602001838380828437600081840152601f19601f8201169050808301925050505050505091929192908035906020019092919080359060200190640100000000811115610d6957600080fd5b820183602082011115610d7b57600080fd5b80359060200191846001830284011164010000000083111715610d9d57600080fd5b91908080601f016020809104026020016040519081016040528093929190818152602001838380828437600081840152601f19601f82011690508083019250505050505050919291929080359060200190640100000000811115610e0057600080fd5b820183602082011115610e1257600080fd5b80359060200191846001830284011164010000000083111715610e3457600080fd5b91908080601f016020809104026020016040519081016040528093929190818152602001838380828437600081840152601f19601f82011690508083019250505050505050919291929080359060200190640100000000811115610e9757600080fd5b820183602082011115610ea957600080fd5b80359060200191846001830284011164010000000083111715610ecb57600080fd5b91908080601f016020809104026020016040519081016040528093929190818152602001838380828437600081840152601f19601f82011690508083019250505050505050919291929080359060200190929190505050613241565b005b348015610f3557600080fd5b50610f6260048036036020811015610f4c57600080fd5b81019080803590602001909291905050506135ef565b005b348015610f7057600080fd5b50610f79613b3f565b6040518082815260200191505060405180910390f35b348015610f9b57600080fd5b50610fde60048036036020811015610fb257600080fd5b81019080803573ffffffffffffffffffffffffffffffffffffffff169060200190929190505050613b45565b005b348015610fec57600080fd5b5061102d6004803603606081101561100357600080fd5b81019080803590602001909291908035906020019092919080359060200190929190505050613d50565b005b600660009054906101000a900473ffffffffffffffffffffffffffffffffffffffff1673ffffffffffffffffffffffffffffffffffffffff163373ffffffffffffffffffffffffffffffffffffffff161461108957600080fd5b6001600960008373ffffffffffffffffffffffffffffffffffffffff1673ffffffffffffffffffffffffffffffffffffffff16815260200190815260200160002060040160006101000a81548160ff021916908360028111156110e857fe5b02179055507f472895c5a2e42a516766f48b8900b49f5ed8cd99d54c5f15c8d99bc225c9966e816001604051808373ffffffffffffffffffffffffffffffffffffffff16815260200182600281111561113d57fe5b81526020019250505060405180910390a150565b60078054600181600116156101000203166002900480601f0160208091040260200160405190810160405280929190818152602001828054600181600116156101000203166002900480156111e75780601f106111bc576101008083540402835291602001916111e7565b820191906000526020600020905b8154815290600101906020018083116111ca57829003601f168201915b505050505081565b60085481565b60025481565b6009602052806000526040600020600091509050806000015490806001018054600181600116156101000203166002900480601f0160208091040260200160405190810160405280929190818152602001828054600181600116156101000203166002900480156112ad5780601f10611282576101008083540402835291602001916112ad565b820191906000526020600020905b81548152906001019060200180831161129057829003601f168201915b505050505090806002018054600181600116156101000203166002900480601f01602080910402602001604051908101604052809291908181526020018280546001816001161561010002031660029004801561134b5780601f106113205761010080835404028352916020019161134b565b820191906000526020600020905b81548152906001019060200180831161132e57829003601f168201915b505050505090806003018054600181600116156101000203166002900480601f0160208091040260200160405190810160405280929190818152602001828054600181600116156101000203166002900480156113e95780601f106113be576101008083540402835291602001916113e9565b820191906000526020600020905b8154815290600101906020018083116113cc57829003601f168201915b5050505050908060040160009054906101000a900460ff16908060050154908060060154908060070154908060080160009054906101000a900473ffffffffffffffffffffffffffffffffffffffff16905089565b600c60009054906101000a900460ff1681565b60035481565b600d600082815260200190815260200160002060040160009054906101000a900473ffffffffffffffffffffffffffffffffffffffff168073ffffffffffffffffffffffffffffffffffffffff163373ffffffffffffffffffffffffffffffffffffffff16146114c657600080fd5b600082600d600082815260200190815260200160002060060160009054906101000a900460ff16600c60016101000a81548160ff0219169083600381111561150a57fe5b021790555081600381111561151b57fe5b600c60019054906101000a900460ff16600381111561153657fe5b146115a9576040517f08c379a000000000000000000000000000000000000000000000000000000000815260040180806020018281038252600e8152602001807f496e76616c69642073746174652e00000000000000000000000000000000000081525060200191505060405180910390fd5b6115b1613dff565b600d60008681526020019081526020016000206040518060e001604052908160008201548152602001600182018054600181600116156101000203166002900480601f0160208091040260200160405190810160405280929190818152602001828054600181600116156101000203166002900480156116725780601f1061164757610100808354040283529160200191611672565b820191906000526020600020905b81548152906001019060200180831161165557829003601f168201915b50505050508152602001600282015481526020016003820160009054906101000a900473ffffffffffffffffffffffffffffffffffffffff1673ffffffffffffffffffffffffffffffffffffffff1673ffffffffffffffffffffffffffffffffffffffff1681526020016004820160009054906101000a900473ffffffffffffffffffffffffffffffffffffffff1673ffffffffffffffffffffffffffffffffffffffff1673ffffffffffffffffffffffffffffffffffffffff168152602001600582015481526020016006820160009054906101000a900460ff16600381111561175957fe5b600381111561176457fe5b815250509050600081606001519050816080015173ffffffffffffffffffffffffffffffffffffffff163373ffffffffffffffffffffffffffffffffffffffff16146117af57600080fd5b8160a001513410156117c057600080fd5b3373ffffffffffffffffffffffffffffffffffffffff168173ffffffffffffffffffffffffffffffffffffffff1614156117f957600080fd5b8160a001513411156118595760008260a00151340390503373ffffffffffffffffffffffffffffffffffffffff166108fc829081150290604051600060405180830381858888f19350505050158015611856573d6000803e3d6000fd5b50505b34600960008373ffffffffffffffffffffffffffffffffffffffff1673ffffffffffffffffffffffffffffffffffffffff168152602001908152602001600020600601600082825401925050819055506001600d600088815260200190815260200160002060060160006101000a81548160ff021916908360038111156118dc57fe5b02179055507f79558d0d7d4d900e2f15c4cc0a665f1acdbe415e44de900ecdd1e5bf12b56f4e8683602001513433600160405180868152602001806020018581526020018473ffffffffffffffffffffffffffffffffffffffff1681526020018315158152602001828103825286818151815260200191508051906020019080838360005b8381101561197c578082015181840152602081019050611961565b50505050905090810190601f1680156119a95780820380516001836020036101000a031916815260200191505b50965050505050505060405180910390a1505050505050565b600b6020528060005260406000206000915090508060000154908060010160009054906101000a900473ffffffffffffffffffffffffffffffffffffffff16908060010160149054906101000a900460ff16908060010160159054906101000a900460ff16908060010160169054906101000a900460ff16905085565b338073ffffffffffffffffffffffffffffffffffffffff163373ffffffffffffffffffffffffffffffffffffffff1614611a7857600080fd5b600182600d600082815260200190815260200160002060060160009054906101000a900460ff16600c60016101000a81548160ff02191690836003811115611abc57fe5b0217905550816003811115611acd57fe5b600c60019054906101000a900460ff166003811115611ae857fe5b14611b5b576040517f08c379a000000000000000000000000000000000000000000000000000000000815260040180806020018281038252600e8152602001807f496e76616c69642073746174652e00000000000000000000000000000000000081525060200191505060405180910390fd5b6002600d600086815260200190815260200160002060060160006101000a81548160ff02191690836003811115611b8e57fe5b021790555050505050565b60008060149054906101000a900460ff16905090565b611bb7613df7565b73ffffffffffffffffffffffffffffffffffffffff1660008054906101000a900473ffffffffffffffffffffffffffffffffffffffff1673ffffffffffffffffffffffffffffffffffffffff1614611c77576040517f08c379a00000000000000000000000000000000000000000000000000000000081526004018080602001828103825260208152602001807f4f776e61626c653a2063616c6c6572206973206e6f7420746865206f776e657281525060200191505060405180910390fd5b600073ffffffffffffffffffffffffffffffffffffffff1660008054906101000a900473ffffffffffffffffffffffffffffffffffffffff1673ffffffffffffffffffffffffffffffffffffffff167f8be0079c531659141344cd1fd0a4f28419497f9722a3daafe3b4186f6b6457e060405160405180910390a360008060006101000a81548173ffffffffffffffffffffffffffffffffffffffff021916908373ffffffffffffffffffffffffffffffffffffffff160217905550565b600154821115611d4457600080fd5b611d4c613e73565b600a60008481526020019081526020016000206040518061012001604052908160008201548152602001600182018054600181600116156101000203166002900480601f016020809104026020016040519081016040528092919081815260200182805460018160011615610100020316600290048015611e0e5780601f10611de357610100808354040283529160200191611e0e565b820191906000526020600020905b815481529060010190602001808311611df157829003601f168201915b50505050508152602001600282018054600181600116156101000203166002900480601f016020809104026020016040519081016040528092919081815260200182805460018160011615610100020316600290048015611eb05780601f10611e8557610100808354040283529160200191611eb0565b820191906000526020600020905b815481529060010190602001808311611e9357829003601f168201915b5050505050815260200160038201548152602001600482018054600181600116156101000203166002900480601f016020809104026020016040519081016040528092919081815260200182805460018160011615610100020316600290048015611f5c5780601f10611f3157610100808354040283529160200191611f5c565b820191906000526020600020905b815481529060010190602001808311611f3f57829003601f168201915b505050505081526020016005820154815260200160068201548152602001600782018054600181600116156101000203166002900480601f0160208091040260200160405190810160405280929190818152602001828054600181600116156101000203166002900480156120125780601f10611fe757610100808354040283529160200191612012565b820191906000526020600020905b815481529060010190602001808311611ff557829003601f168201915b505050505081526020016008820160009054906101000a900473ffffffffffffffffffffffffffffffffffffffff1673ffffffffffffffffffffffffffffffffffffffff1673ffffffffffffffffffffffffffffffffffffffff1681525050905080610100015173ffffffffffffffffffffffffffffffffffffffff163373ffffffffffffffffffffffffffffffffffffffff1614156120b157600080fd5b8060a001518211156120c257600080fd5b600082116120cf57600080fd5b6003600081548092919060010191905055506040518060e0016040528060035481526020018260200151815260200183815260200182610100015173ffffffffffffffffffffffffffffffffffffffff1681526020013373ffffffffffffffffffffffffffffffffffffffff1681526020018383606001510281526020016000600381111561215a57fe5b815250600d60006003548152602001908152602001600020600082015181600001556020820151816001019080519060200190612198929190613ed5565b506040820151816002015560608201518160030160006101000a81548173ffffffffffffffffffffffffffffffffffffffff021916908373ffffffffffffffffffffffffffffffffffffffff16021790555060808201518160040160006101000a81548173ffffffffffffffffffffffffffffffffffffffff021916908373ffffffffffffffffffffffffffffffffffffffff16021790555060a0820151816005015560c08201518160060160006101000a81548160ff0219169083600381111561225f57fe5b021790555090505081600a60008581526020019081526020016000206005015403600a6000858152602001908152602001600020600501819055507f88d71aa2f2ee807c43a0f8a2dbecfd578062b143dd380ccc84a992f1afdb77013382610100015184846060015102858560200151604051808673ffffffffffffffffffffffffffffffffffffffff1681526020018573ffffffffffffffffffffffffffffffffffffffff16815260200184815260200183815260200180602001828103825283818151815260200191508051906020019080838360005b83811015612353578082015181840152602081019050612338565b50505050905090810190601f1680156123805780820380516001836020036101000a031916815260200191505b50965050505050505060405180910390a1505050565b600a602052806000526040600020600091509050806000015490806001018054600181600116156101000203166002900480601f0160208091040260200160405190810160405280929190818152602001828054600181600116156101000203166002900480156124485780601f1061241d57610100808354040283529160200191612448565b820191906000526020600020905b81548152906001019060200180831161242b57829003601f168201915b505050505090806002018054600181600116156101000203166002900480601f0160208091040260200160405190810160405280929190818152602001828054600181600116156101000203166002900480156124e65780601f106124bb576101008083540402835291602001916124e6565b820191906000526020600020905b8154815290600101906020018083116124c957829003601f168201915b505050505090806003015490806004018054600181600116156101000203166002900480601f01602080910402602001604051908101604052809291908181526020018280546001816001161561010002031660029004801561258a5780601f1061255f5761010080835404028352916020019161258a565b820191906000526020600020905b81548152906001019060200180831161256d57829003601f168201915b505050505090806005015490806006015490806007018054600181600116156101000203166002900480601f0160208091040260200160405190810160405280929190818152602001828054600181600116156101000203166002900480156126345780601f1061260957610100808354040283529160200191612634565b820191906000526020600020905b81548152906001019060200180831161261757829003601f168201915b5050505050908060080160009054906101000a900473ffffffffffffffffffffffffffffffffffffffff16905089565b60008060009054906101000a900473ffffffffffffffffffffffffffffffffffffffff16905090565b600060149054906101000a900460ff1615612710576040517f08c379a00000000000000000000000000000000000000000000000000000000081526004018080602001828103825260108152602001807f5061757361626c653a207061757365640000000000000000000000000000000081525060200191505060405180910390fd5b600083511161271e57600080fd5b600082511161272c57600080fd5b60026000815480929190600101919050555060086000815480929190600101919050555060405180610120016040528060025481526020018481526020018381526020018281526020016000600281111561278357fe5b815260200160008152602001600081526020013373ffffffffffffffffffffffffffffffffffffffff163181526020013373ffffffffffffffffffffffffffffffffffffffff16815250600960003373ffffffffffffffffffffffffffffffffffffffff1673ffffffffffffffffffffffffffffffffffffffff168152602001908152602001600020600082015181600001556020820151816001019080519060200190612832929190613ed5565b50604082015181600201908051906020019061284f929190613ed5565b50606082015181600301908051906020019061286c929190613ed5565b5060808201518160040160006101000a81548160ff0219169083600281111561289157fe5b021790555060a0820151816005015560c0820151816006015560e082015181600701556101008201518160080160006101000a81548173ffffffffffffffffffffffffffffffffffffffff021916908373ffffffffffffffffffffffffffffffffffffffff1602179055509050506001600560003373ffffffffffffffffffffffffffffffffffffffff1673ffffffffffffffffffffffffffffffffffffffff16815260200190815260200160002060006101000a81548160ff0219169083151502179055506040518060a0016040528060085481526020013373ffffffffffffffffffffffffffffffffffffffff16815260200160011515815260200160001515815260200160011515815250600b600060085481526020019081526020016000206000820151816000015560208201518160010160006101000a81548173ffffffffffffffffffffffffffffffffffffffff021916908373ffffffffffffffffffffffffffffffffffffffff16021790555060408201518160010160146101000a81548160ff02191690831515021790555060608201518160010160156101000a81548160ff02191690831515021790555060808201518160010160166101000a81548160ff0219169083151502179055509050507f9b0a546f7beb1fa8e83bdafcd03bf04f9abec1b5c88151151eec8d152d6b55ae60025484848433604051808681526020018060200180602001806020018573ffffffffffffffffffffffffffffffffffffffff168152602001848103845288818151815260200191508051906020019080838360005b83811015612afa578082015181840152602081019050612adf565b50505050905090810190601f168015612b275780820380516001836020036101000a031916815260200191505b50848103835287818151815260200191508051906020019080838360005b83811015612b60578082015181840152602081019050612b45565b50505050905090810190601f168015612b8d5780820380516001836020036101000a031916815260200191505b50848103825286818151815260200191508051906020019080838360005b83811015612bc6578082015181840152602081019050612bab565b50505050905090810190601f168015612bf35780820380516001836020036101000a031916815260200191505b509850505050505050505060405180910390a1505050565b612c13613e73565b600a60008481526020019081526020016000206040518061012001604052908160008201548152602001600182018054600181600116156101000203166002900480601f016020809104026020016040519081016040528092919081815260200182805460018160011615610100020316600290048015612cd55780601f10612caa57610100808354040283529160200191612cd5565b820191906000526020600020905b815481529060010190602001808311612cb857829003601f168201915b50505050508152602001600282018054600181600116156101000203166002900480601f016020809104026020016040519081016040528092919081815260200182805460018160011615610100020316600290048015612d775780601f10612d4c57610100808354040283529160200191612d77565b820191906000526020600020905b815481529060010190602001808311612d5a57829003601f168201915b5050505050815260200160038201548152602001600482018054600181600116156101000203166002900480601f016020809104026020016040519081016040528092919081815260200182805460018160011615610100020316600290048015612e235780601f10612df857610100808354040283529160200191612e23565b820191906000526020600020905b815481529060010190602001808311612e0657829003601f168201915b505050505081526020016005820154815260200160068201548152602001600782018054600181600116156101000203166002900480601f016020809104026020016040519081016040528092919081815260200182805460018160011615610100020316600290048015612ed95780601f10612eae57610100808354040283529160200191612ed9565b820191906000526020600020905b815481529060010190602001808311612ebc57829003601f168201915b505050505081526020016008820160009054906101000a900473ffffffffffffffffffffffffffffffffffffffff1673ffffffffffffffffffffffffffffffffffffffff1673ffffffffffffffffffffffffffffffffffffffff168152505090506000816101000151905060008260000151118015612f5e5750600154826000015111155b612f6757600080fd5b600082606001518402905080341015612f7f57600080fd5b3373ffffffffffffffffffffffffffffffffffffffff168273ffffffffffffffffffffffffffffffffffffffff161415612fb857600080fd5b8173ffffffffffffffffffffffffffffffffffffffff166108fc349081150290604051600060405180830381858888f19350505050158015612ffe573d6000803e3d6000fd5b507f79558d0d7d4d900e2f15c4cc0a665f1acdbe415e44de900ecdd1e5bf12b56f4e60015484602001513433600160405180868152602001806020018581526020018473ffffffffffffffffffffffffffffffffffffffff1681526020018315158152602001828103825286818151815260200191508051906020019080838360005b8381101561309c578082015181840152602081019050613081565b50505050905090810190601f1680156130c95780820380516001836020036101000a031916815260200191505b50965050505050505060405180910390a15050505050565b600c60019054906101000a900460ff1681565b600d602052806000526040600020600091509050806000015490806001018054600181600116156101000203166002900480601f0160208091040260200160405190810160405280929190818152602001828054600181600116156101000203166002900480156131a65780601f1061317b576101008083540402835291602001916131a6565b820191906000526020600020905b81548152906001019060200180831161318957829003601f168201915b5050505050908060020154908060030160009054906101000a900473ffffffffffffffffffffffffffffffffffffffff16908060040160009054906101000a900473ffffffffffffffffffffffffffffffffffffffff16908060050154908060060160009054906101000a900460ff16905087565b600660009054906101000a900473ffffffffffffffffffffffffffffffffffffffff1681565b600086511161324f57600080fd5b6000851161325c57600080fd5b6001600081548092919060010191905055506040518061012001604052806001548152602001878152602001858152602001868152602001848152602001828152602001600581526020018381526020013373ffffffffffffffffffffffffffffffffffffffff16815250600a60006001548152602001908152602001600020600082015181600001556020820151816001019080519060200190613302929190613ed5565b50604082015181600201908051906020019061331f929190613ed5565b50606082015181600301556080820151816004019080519060200190613346929190613ed5565b5060a0820151816005015560c0820151816006015560e0820151816007019080519060200190613377929190613ed5565b506101008201518160080160006101000a81548173ffffffffffffffffffffffffffffffffffffffff021916908373ffffffffffffffffffffffffffffffffffffffff1602179055509050507f3db72c9a5aaf30b305c995bc0c102a413bc40646247d91b1783b71040dcc3082600154878688878660008933604051808a8152602001806020018060200189815260200180602001888152602001878152602001806020018673ffffffffffffffffffffffffffffffffffffffff16815260200185810385528d818151815260200191508051906020019080838360005b83811015613470578082015181840152602081019050613455565b50505050905090810190601f16801561349d5780820380516001836020036101000a031916815260200191505b5085810384528c818151815260200191508051906020019080838360005b838110156134d65780820151818401526020810190506134bb565b50505050905090810190601f1680156135035780820380516001836020036101000a031916815260200191505b5085810383528a818151815260200191508051906020019080838360005b8381101561353c578082015181840152602081019050613521565b50505050905090810190601f1680156135695780820380516001836020036101000a031916815260200191505b50858103825287818151815260200191508051906020019080838360005b838110156135a2578082015181840152602081019050613587565b50505050905090810190601f1680156135cf5780820380516001836020036101000a031916815260200191505b509d505050505050505050505050505060405180910390a1505050505050565b338073ffffffffffffffffffffffffffffffffffffffff163373ffffffffffffffffffffffffffffffffffffffff161461362857600080fd5b600182600d600082815260200190815260200160002060060160009054906101000a900460ff16600c60016101000a81548160ff0219169083600381111561366c57fe5b021790555081600381111561367d57fe5b600c60019054906101000a900460ff16600381111561369857fe5b1461370b576040517f08c379a000000000000000000000000000000000000000000000000000000000815260040180806020018281038252600e8152602001807f496e76616c69642073746174652e00000000000000000000000000000000000081525060200191505060405180910390fd5b613713613dff565b600d60008681526020019081526020016000206040518060e001604052908160008201548152602001600182018054600181600116156101000203166002900480601f0160208091040260200160405190810160405280929190818152602001828054600181600116156101000203166002900480156137d45780601f106137a9576101008083540402835291602001916137d4565b820191906000526020600020905b8154815290600101906020018083116137b757829003601f168201915b50505050508152602001600282015481526020016003820160009054906101000a900473ffffffffffffffffffffffffffffffffffffffff1673ffffffffffffffffffffffffffffffffffffffff1673ffffffffffffffffffffffffffffffffffffffff1681526020016004820160009054906101000a900473ffffffffffffffffffffffffffffffffffffffff1673ffffffffffffffffffffffffffffffffffffffff1673ffffffffffffffffffffffffffffffffffffffff168152602001600582015481526020016006820160009054906101000a900460ff1660038111156138bb57fe5b60038111156138c657fe5b815250509050806060015173ffffffffffffffffffffffffffffffffffffffff163373ffffffffffffffffffffffffffffffffffffffff161461390857600080fd5b600960003373ffffffffffffffffffffffffffffffffffffffff1673ffffffffffffffffffffffffffffffffffffffff168152602001908152602001600020600601548160a00151116139f5578060a00151600960003373ffffffffffffffffffffffffffffffffffffffff1673ffffffffffffffffffffffffffffffffffffffff168152602001908152602001600020600601600082825403925050819055503373ffffffffffffffffffffffffffffffffffffffff166108fc8260a001519081150290604051600060405180830381858888f193505050501580156139f3573d6000803e3d6000fd5b505b6003600d600087815260200190815260200160002060060160006101000a81548160ff02191690836003811115613a2857fe5b02179055507fbceaa19a22f99be6e47ece745a8ac48a9244902b2f52112f442eb17570bd2efd8582602001518360a001513360405180858152602001806020018481526020018373ffffffffffffffffffffffffffffffffffffffff16815260200180602001838103835286818151815260200191508051906020019080838360005b83811015613ac6578082015181840152602081019050613aab565b50505050905090810190601f168015613af35780820380516001836020036101000a031916815260200191505b50838103825260098152602001807f636f6d706c657465640000000000000000000000000000000000000000000000815250602001965050505050505060405180910390a15050505050565b60015481565b613b4d613df7565b73ffffffffffffffffffffffffffffffffffffffff1660008054906101000a900473ffffffffffffffffffffffffffffffffffffffff1673ffffffffffffffffffffffffffffffffffffffff1614613c0d576040517f08c379a00000000000000000000000000000000000000000000000000000000081526004018080602001828103825260208152602001807f4f776e61626c653a2063616c6c6572206973206e6f7420746865206f776e657281525060200191505060405180910390fd5b600073ffffffffffffffffffffffffffffffffffffffff168173ffffffffffffffffffffffffffffffffffffffff161415613c93576040517f08c379a0000000000000000000000000000000000000000000000000000000008152600401808060200182810382526026815260200180613f736026913960400191505060405180910390fd5b8073ffffffffffffffffffffffffffffffffffffffff1660008054906101000a900473ffffffffffffffffffffffffffffffffffffffff1673ffffffffffffffffffffffffffffffffffffffff167f8be0079c531659141344cd1fd0a4f28419497f9722a3daafe3b4186f6b6457e060405160405180910390a3806000806101000a81548173ffffffffffffffffffffffffffffffffffffffff021916908373ffffffffffffffffffffffffffffffffffffffff16021790555050565b338073ffffffffffffffffffffffffffffffffffffffff163373ffffffffffffffffffffffffffffffffffffffff1614613d8957600080fd5b600154841115613d9857600080fd5b60008311613da557600080fd5b60008211613db257600080fd5b82600a60008681526020019081526020016000206003018190555081600a60008681526020019081526020016000206005016000828254019250508190555050505050565b600033905090565b6040518060e00160405280600081526020016060815260200160008152602001600073ffffffffffffffffffffffffffffffffffffffff168152602001600073ffffffffffffffffffffffffffffffffffffffff1681526020016000815260200160006003811115613e6d57fe5b81525090565b6040518061012001604052806000815260200160608152602001606081526020016000815260200160608152602001600081526020016000815260200160608152602001600073ffffffffffffffffffffffffffffffffffffffff1681525090565b828054600181600116156101000203166002900490600052602060002090601f016020900481019282601f10613f1657805160ff1916838001178555613f44565b82800160010185558215613f44579182015b82811115613f43578251825591602001919060010190613f28565b5b509050613f519190613f55565b5090565b5b80821115613f6e576000816000905550600101613f56565b509056fe4f776e61626c653a206e6577206f776e657220697320746865207a65726f2061646472657373a264697066735822122050a74342a5424320e84140edfcacf2d82c88ef02acef888821a856f70cfbafca64736f6c634300060c0033",
  "immutableReferences": {},
  "source": "// SPDX-License-Identifier: GPL-3.0\r\npragma solidity ^0.6.4;\r\n\r\nimport \"@openzeppelin/contracts/access/Ownable.sol\";\r\nimport \"@openzeppelin/contracts/utils/Pausable.sol\";\r\nimport \"@openzeppelin/contracts/math/SafeMath.sol\";\r\n\r\n/// @title An Online Marketplace using Blockchain\r\n/// @author Abdullah Al Qayum\r\n/// @notice This is Consensys Bootcamp project to understand solidity and smart contract\r\n/// @dev All function calls are currently implemented without side effects\r\n\r\ncontract Marketplace is Ownable, Pausable {\r\n    using SafeMath for uint256;\r\n\r\n    uint256 public productCount = 0;\r\n    uint256 public supplierCount = 0;\r\n    uint256 public orderCount = 0;\r\n\r\n    enum Status {APPLIED, APPROVED, REJECTED}\r\n\r\n    mapping(address => bool) private administrators;\r\n    mapping(address => bool) private sellers;\r\n\r\n    //Define Marketplace Owner\r\n    address public _owner;\r\n    // marketplace Name ;\r\n    string public name;\r\n\r\n    uint256 public userCount = 0;\r\n\r\n    mapping(address => Supplier) public suppliers;\r\n\r\n    mapping(uint256 => Product) public products;\r\n\r\n    constructor() public payable {\r\n        name = \"Online Marketplace\";\r\n        userCount++;\r\n        _owner = msg.sender;\r\n        administrators[msg.sender] = true;\r\n        users[userCount] = User(userCount, _owner, true, true, true);\r\n    }\r\n\r\n    modifier onlyAdmin() {\r\n        require(msg.sender == _owner);\r\n        _;\r\n    }\r\n\r\n    struct User {\r\n        uint256 id;\r\n        address _addr;\r\n        bool isActive;\r\n        bool isAdmin;\r\n        bool isSeller;\r\n    }\r\n\r\n    mapping(uint256 => User) public users;\r\n\r\n    modifier onlySeller(address _addr) {\r\n        require(msg.sender == _addr);\r\n        _;\r\n    }\r\n    modifier listedSeller(address _addr) {\r\n        require(sellers[_addr]);\r\n        _;\r\n    }\r\n\r\n    modifier onlyBuyer(address addr) {\r\n        require(msg.sender == addr);\r\n        _;\r\n    }\r\n\r\n    struct Supplier {\r\n        uint256 Id;\r\n        string name;\r\n        string tradeLicence;\r\n        string image;\r\n        Status status;\r\n        uint256 tranCount;\r\n        uint256 totalTranBalance;\r\n        uint256 walletBalance;\r\n        address storeOwner;\r\n    }\r\n    Status public status;\r\n\r\n    event supplierCreated(\r\n        uint256 id,\r\n        string _name,\r\n        string _tradeLicence,\r\n        string _logo,\r\n        address _addr\r\n    );\r\n\r\n    function createSupplier(\r\n        string memory _name,\r\n        string memory _tradeLicence,\r\n        string memory _logo\r\n    ) public whenNotPaused {\r\n        require(bytes(_name).length > 0);\r\n        require(bytes(_tradeLicence).length > 0);\r\n        supplierCount++;\r\n        userCount++;\r\n        suppliers[msg.sender] = Supplier(\r\n            supplierCount,\r\n            _name,\r\n            _tradeLicence,\r\n            _logo,\r\n            Status.APPLIED,\r\n            0,\r\n            0,\r\n            address(msg.sender).balance,\r\n            msg.sender\r\n        );\r\n        sellers[msg.sender] = true;\r\n        users[userCount] = User(userCount, msg.sender, true, false, true);\r\n        emit supplierCreated(\r\n            supplierCount,\r\n            _name,\r\n            _tradeLicence,\r\n            _logo,\r\n            msg.sender\r\n        );\r\n    }\r\n\r\n    // event approveSupplier\r\n    event logApproved(address _addr, Status);\r\n\r\n    function approveSupplier(address _addr) public onlyAdmin {\r\n        suppliers[_addr].status = Status.APPROVED;\r\n        emit logApproved(_addr, Status.APPROVED);\r\n    }\r\n\r\n    enum OrderStatus {Ordered, Purchased, Delivered, Completed}\r\n    //uint256 public  orderCount ;\r\n\r\n    OrderStatus public orderstatus;\r\n\r\n    modifier inState(OrderStatus _state, uint256 orderID) {\r\n        orderstatus = orders[orderID].orderStatus;\r\n\r\n        require(orderstatus == _state, \"Invalid state.\");\r\n        _;\r\n    }\r\n\r\n    struct Order {\r\n        uint256 orderID;\r\n        string productName;\r\n        uint256 quantity;\r\n        address payable seller;\r\n        address payable buyer;\r\n        uint256 totalAmount;\r\n        OrderStatus orderStatus;\r\n    }\r\n    mapping(uint256 => Order) public orders;\r\n\r\n    //  Order [] public orders ;\r\n    struct Product {\r\n        uint256 id;\r\n        string name;\r\n        string image;\r\n        uint256 price;\r\n        string category;\r\n        uint256 countInStock;\r\n        uint256 rating;\r\n        string description;\r\n        address owner;\r\n    }\r\n    event ProductCreated(\r\n        uint256 id,\r\n        string name,\r\n        string image,\r\n        uint256 price,\r\n        string category,\r\n        uint256 countInStock,\r\n        uint256 rating,\r\n        string description,\r\n        address owner\r\n    );\r\n\r\n    function createProduct(\r\n        string memory _name,\r\n        uint256 _price,\r\n        string memory _image,\r\n        // string memory _brand,\r\n        string memory _category,\r\n        string memory _description,\r\n        uint256 _countInStock\r\n    ) public {\r\n        // Require a valid name\r\n        require(bytes(_name).length > 0);\r\n        // Require a valid price\r\n        require(_price > 0);\r\n        // Increment product count\r\n        productCount++;\r\n        // Create the product\r\n        products[productCount] = Product(\r\n            productCount,\r\n            _name,\r\n            _image,\r\n            _price,\r\n            _category,\r\n            _countInStock,\r\n            5,\r\n            _description,\r\n            msg.sender\r\n        );\r\n        // Trigger an event\r\n        emit ProductCreated(\r\n            productCount,\r\n            _name,\r\n            _image,\r\n            _price,\r\n            _category,\r\n            _countInStock,\r\n            0,\r\n            _description,\r\n            msg.sender\r\n        );\r\n    }\r\n\r\n    function updateProduct(\r\n        uint256 id,\r\n        uint256 _price,\r\n        // string memory _brand,\r\n        uint256 _countInStock\r\n    ) public onlySeller(msg.sender) {\r\n        require(id <= productCount);\r\n        require(_price > 0);\r\n        require(_countInStock > 0);\r\n        products[id].price = _price;\r\n        products[id].countInStock += _countInStock;\r\n    }\r\n\r\n    event BalanceWithdrawn(\r\n        uint256 id,\r\n        string name,\r\n        uint256 price,\r\n        address owner,\r\n        string completed\r\n    );\r\n\r\n    event ProductPurchased(\r\n        uint256 id,\r\n        string name,\r\n        uint256 price,\r\n        address owner,\r\n        bool purchased\r\n    );\r\n\r\n    event OrderCreated(\r\n        address buyer,\r\n        address seller,\r\n        uint256 totalAmount,\r\n        uint256 qty,\r\n        string productName\r\n    );\r\n\r\n    function purchaseProduct(uint256 _id, uint256 qty) public payable {\r\n        // Fetch the product\r\n        Product memory _product = products[_id];\r\n        // Fetch the owner\r\n        //  address  _seller =  _product.owner;\r\n\r\n        address payable _seller = payable(_product.owner);\r\n\r\n        // Make sure the product has a valid id\r\n        require(_product.id > 0 && _product.id <= productCount);\r\n\r\n        uint256 totalAmount = qty * _product.price;\r\n        // Require that there is enough Ether in the transaction\r\n        require(msg.value >= totalAmount);\r\n        // Require that the buyer is not the seller\r\n        require(_seller != msg.sender);\r\n        // Transfer ownership to the buyer\r\n        //_product.owner = msg.sender;\r\n        // Mark as purchased\r\n        //  _product.purchased = true;\r\n        // Update the product\r\n        //  products[_id] = _product;\r\n        // Pay the seller by sending them Ether\r\n        // orderCount++ ;\r\n\r\n        //  createOrder(orderCount , _product.name , qty,_seller, msg.sender , totalAmount ,OrderStatus.Purchased);\r\n\r\n        _seller.transfer(msg.value);\r\n        // Trigger an event\r\n        emit ProductPurchased(\r\n            productCount,\r\n            _product.name,\r\n            msg.value,\r\n            msg.sender,\r\n            true\r\n        );\r\n    }\r\n\r\n    function createOrder(uint256 productId, uint256 quantity) public payable {\r\n        //require(productId<=productCount) ;\r\n\r\n        require(productId <= productCount);\r\n\r\n        Product memory _product = products[productId];\r\n\r\n        require(msg.sender != _product.owner);\r\n\r\n        require(quantity <= _product.countInStock);\r\n\r\n        require(quantity > 0);\r\n\r\n        orderCount++;\r\n        orders[orderCount] = Order(\r\n            orderCount,\r\n            _product.name,\r\n            quantity,\r\n            payable(_product.owner),\r\n            payable(msg.sender),\r\n            _product.price * quantity,\r\n            OrderStatus.Ordered\r\n        );\r\n        products[productId].countInStock =\r\n            products[productId].countInStock -\r\n            quantity;\r\n\r\n        emit OrderCreated(\r\n            msg.sender,\r\n            _product.owner,\r\n            _product.price * quantity,\r\n            quantity,\r\n            _product.name\r\n        );\r\n    }\r\n\r\n    function payOrder(uint256 orderID)\r\n        public\r\n        payable\r\n        onlyBuyer(orders[orderID].buyer)\r\n        inState(OrderStatus.Ordered, orderID)\r\n    {\r\n        Order memory _order = orders[orderID];\r\n\r\n        //fetch the Id of the seller\r\n        //  uint256 supplierID;\r\n\r\n        // Fetch the owner\r\n\r\n        address payable _seller = payable(_order.seller);\r\n\r\n        // Should be same as who order the product\r\n        require(msg.sender == _order.buyer);\r\n\r\n        //   uint256 totalAmount = _order.totalAmount;\r\n        // Require that there is enough Ether in the transaction\r\n        require(msg.value >= _order.totalAmount);\r\n        // Require that the buyer is not the seller\r\n        require(_seller != msg.sender);\r\n\r\n        // If amount sent is too large, refund the difference\r\n        if (msg.value > _order.totalAmount) {\r\n            uint256 refund = msg.value - _order.totalAmount;\r\n            msg.sender.transfer(refund);\r\n        }\r\n\r\n        suppliers[_seller].totalTranBalance += msg.value;\r\n\r\n        // _seller.transfer(msg.value);\r\n\r\n        orders[orderID].orderStatus = OrderStatus.Purchased;\r\n        // Trigger an event\r\n        emit ProductPurchased(\r\n            orderID,\r\n            _order.productName,\r\n            msg.value,\r\n            msg.sender,\r\n            true\r\n        );\r\n    }\r\n\r\n    function deliver(uint256 orderId)\r\n        public\r\n        onlySeller(msg.sender)\r\n        inState(OrderStatus.Purchased, orderId)\r\n    {\r\n        orders[orderId].orderStatus = OrderStatus.Delivered;\r\n    }\r\n\r\n    function withdrawBalance(uint256 orderID)\r\n        public\r\n        onlySeller(msg.sender)\r\n        inState(OrderStatus.Purchased, orderID)\r\n    {\r\n        Order memory _order = orders[orderID];\r\n\r\n        //fetch the Id of the seller\r\n\r\n        require(msg.sender == _order.seller);\r\n\r\n        if (_order.totalAmount <= suppliers[msg.sender].totalTranBalance) {\r\n            suppliers[msg.sender].totalTranBalance -= _order.totalAmount;\r\n            msg.sender.transfer(_order.totalAmount);\r\n        }\r\n\r\n        orders[orderID].orderStatus = OrderStatus.Completed;\r\n        emit BalanceWithdrawn(\r\n            orderID,\r\n            _order.productName,\r\n            _order.totalAmount,\r\n            msg.sender,\r\n            \"completed\"\r\n        );\r\n    }\r\n}\r\n",
  "sourcePath": "E:/final_project/learning/blockchain/ecommerce-app/marketplace/src/contracts/Marketplace.sol",
  "compiler": {
    "name": "solc",
    "version": "0.6.12+commit.27d51765.Emscripten.clang"
  },
  "schemaVersion": "3.3.2",
  "updatedAt": "2021-01-03T09:23:02.087Z",
  "networkType": "ethereum",
  "devdoc": {
    "author": "Abdullah Al Qayum",
    "details": "All function calls are currently implemented without side effects",
    "kind": "dev",
    "methods": {
      "owner()": {
        "details": "Returns the address of the current owner."
      },
      "paused()": {
        "details": "Returns true if the contract is paused, and false otherwise."
      },
      "renounceOwnership()": {
        "details": "Leaves the contract without owner. It will not be possible to call `onlyOwner` functions anymore. Can only be called by the current owner. NOTE: Renouncing ownership will leave the contract without an owner, thereby removing any functionality that is only available to the owner."
      },
      "transferOwnership(address)": {
        "details": "Transfers ownership of the contract to a new account (`newOwner`). Can only be called by the current owner."
      }
    },
    "title": "An Online Marketplace using Blockchain",
    "version": 1
  },
  "userdoc": {
    "kind": "user",
    "methods": {},
    "notice": "This is Consensys Bootcamp project to understand solidity and smart contract",
    "version": 1
  }
}